{
    "contractName": "myNFT",
    "abi": [
        {
            "inputs": [
                {
                    "internalType": "string",
                    "name": "_name",
                    "type": "string"
                },
                {
                    "internalType": "string",
                    "name": "_symbol",
                    "type": "string"
                }
            ],
            "stateMutability": "nonpayable",
            "type": "constructor"
        },
        {
            "anonymous": false,
            "inputs": [
                {
                    "indexed": true,
                    "internalType": "address",
                    "name": "_owner",
                    "type": "address"
                },
                {
                    "indexed": true,
                    "internalType": "address",
                    "name": "_approved",
                    "type": "address"
                },
                {
                    "indexed": true,
                    "internalType": "uint256",
                    "name": "_tokenId",
                    "type": "uint256"
                }
            ],
            "name": "Approval",
            "type": "event"
        },
        {
            "anonymous": false,
            "inputs": [
                {
                    "indexed": true,
                    "internalType": "address",
                    "name": "_owner",
                    "type": "address"
                },
                {
                    "indexed": true,
                    "internalType": "address",
                    "name": "_operator",
                    "type": "address"
                },
                {
                    "indexed": false,
                    "internalType": "bool",
                    "name": "_approved",
                    "type": "bool"
                }
            ],
            "name": "ApprovalForAll",
            "type": "event"
        },
        {
            "anonymous": false,
            "inputs": [
                {
                    "indexed": true,
                    "internalType": "address",
                    "name": "_from",
                    "type": "address"
                },
                {
                    "indexed": true,
                    "internalType": "address",
                    "name": "_to",
                    "type": "address"
                },
                {
                    "indexed": true,
                    "internalType": "uint256",
                    "name": "_tokenId",
                    "type": "uint256"
                }
            ],
            "name": "Transfer",
            "type": "event"
        },
        {
            "inputs": [
                {
                    "internalType": "address",
                    "name": "_owner",
                    "type": "address"
                }
            ],
            "name": "balanceOf",
            "outputs": [
                {
                    "internalType": "uint256",
                    "name": "",
                    "type": "uint256"
                }
            ],
            "stateMutability": "view",
            "type": "function"
        },
        {
            "inputs": [
                {
                    "internalType": "uint256",
                    "name": "_tokenId",
                    "type": "uint256"
                }
            ],
            "name": "buyToken",
            "outputs": [],
            "stateMutability": "payable",
            "type": "function"
        },
        {
            "inputs": [
                {
                    "internalType": "uint256",
                    "name": "",
                    "type": "uint256"
                }
            ],
            "name": "images",
            "outputs": [
                {
                    "internalType": "string",
                    "name": "name",
                    "type": "string"
                },
                {
                    "internalType": "string",
                    "name": "url",
                    "type": "string"
                },
                {
                    "internalType": "string",
                    "name": "myAttributes",
                    "type": "string"
                }
            ],
            "stateMutability": "view",
            "type": "function"
        },
        {
            "inputs": [
                {
                    "internalType": "uint256",
                    "name": "",
                    "type": "uint256"
                }
            ],
            "name": "isForSale",
            "outputs": [
                {
                    "internalType": "bool",
                    "name": "",
                    "type": "bool"
                }
            ],
            "stateMutability": "view",
            "type": "function"
        },
        {
            "inputs": [
                {
                    "internalType": "uint256",
                    "name": "_tokenId",
                    "type": "uint256"
                }
            ],
            "name": "isOnSale",
            "outputs": [
                {
                    "internalType": "bool",
                    "name": "",
                    "type": "bool"
                }
            ],
            "stateMutability": "view",
            "type": "function"
        },
        {
            "inputs": [
                {
                    "internalType": "address",
                    "name": "_to",
                    "type": "address"
                },
                {
                    "internalType": "string",
                    "name": "_name",
                    "type": "string"
                },
                {
                    "internalType": "string",
                    "name": "_url",
                    "type": "string"
                },
                {
                    "internalType": "string",
                    "name": "myAttributes",
                    "type": "string"
                }
            ],
            "name": "mint",
            "outputs": [],
            "stateMutability": "nonpayable",
            "type": "function"
        },
        {
            "inputs": [
                {
                    "internalType": "uint256",
                    "name": "_tokenId",
                    "type": "uint256"
                },
                {
                    "internalType": "bool",
                    "name": "_forSale",
                    "type": "bool"
                }
            ],
            "name": "onSale",
            "outputs": [],
            "stateMutability": "nonpayable",
            "type": "function"
        },
        {
            "inputs": [
                {
                    "internalType": "uint256",
                    "name": "tokenId",
                    "type": "uint256"
                }
            ],
            "name": "ownerHistoryOf",
            "outputs": [
                {
                    "internalType": "address[]",
                    "name": "",
                    "type": "address[]"
                }
            ],
            "stateMutability": "view",
            "type": "function"
        },
        {
            "inputs": [
                {
                    "internalType": "uint256",
                    "name": "_tokenId",
                    "type": "uint256"
                }
            ],
            "name": "ownerOf",
            "outputs": [
                {
                    "internalType": "address",
                    "name": "",
                    "type": "address"
                }
            ],
            "stateMutability": "view",
            "type": "function"
        },
        {
            "inputs": [
                {
                    "internalType": "uint256",
                    "name": "_tokenId",
                    "type": "uint256"
                }
            ],
            "name": "sellToken",
            "outputs": [],
            "stateMutability": "nonpayable",
            "type": "function"
        },
        {
            "inputs": [
                {
                    "internalType": "address",
                    "name": "",
                    "type": "address"
                }
            ],
            "name": "tokenBalance",
            "outputs": [
                {
                    "internalType": "uint256",
                    "name": "",
                    "type": "uint256"
                }
            ],
            "stateMutability": "view",
            "type": "function"
        },
        {
            "inputs": [
                {
                    "internalType": "uint256",
                    "name": "",
                    "type": "uint256"
                }
            ],
            "name": "tokenOwner",
            "outputs": [
                {
                    "internalType": "address",
                    "name": "",
                    "type": "address"
                }
            ],
            "stateMutability": "view",
            "type": "function"
        },
        {
            "inputs": [
                {
                    "internalType": "uint256",
                    "name": "",
                    "type": "uint256"
                },
                {
                    "internalType": "uint256",
                    "name": "",
                    "type": "uint256"
                }
            ],
            "name": "tokenOwnerHistory",
            "outputs": [
                {
                    "internalType": "address",
                    "name": "",
                    "type": "address"
                }
            ],
            "stateMutability": "view",
            "type": "function"
        },
        {
            "inputs": [
                {
                    "internalType": "uint256",
                    "name": "",
                    "type": "uint256"
                }
            ],
            "name": "tokenPrice",
            "outputs": [
                {
                    "internalType": "uint256",
                    "name": "",
                    "type": "uint256"
                }
            ],
            "stateMutability": "view",
            "type": "function"
        },
        {
            "inputs": [
                {
                    "internalType": "address",
                    "name": "_from",
                    "type": "address"
                },
                {
                    "internalType": "address",
                    "name": "_to",
                    "type": "address"
                },
                {
                    "internalType": "uint256",
                    "name": "_tokenId",
                    "type": "uint256"
                }
            ],
            "name": "transferFrom",
            "outputs": [],
            "stateMutability": "nonpayable",
            "type": "function"
        }
    ],
    "bytecode": "60806040523480156200001157600080fd5b506040516200135538038062001355833981016040819052620000349162000101565b50506200016b565b634e487b7160e01b600052604160045260246000fd5b600082601f8301126200006457600080fd5b81516001600160401b03808211156200008157620000816200003c565b604051601f8301601f19908116603f01168101908282118183101715620000ac57620000ac6200003c565b81604052838152602092508683858801011115620000c957600080fd5b600091505b83821015620000ed5785820183015181830184015290820190620000ce565b600093810190920192909252949350505050565b600080604083850312156200011557600080fd5b82516001600160401b03808211156200012d57600080fd5b6200013b8683870162000052565b935060208501519150808211156200015257600080fd5b50620001618582860162000052565b9150509250929050565b6111da806200017b6000396000f3fe6080604052600436106100e85760003560e01c80636352211e1161008a578063cbd894c711610059578063cbd894c714610306578063d4ddce8a14610326578063eedc966a14610353578063f0f2805f1461038057600080fd5b80636352211e1461021d57806370a082311461025357806384856482146102975780638546d002146102c657600080fd5b806323b872dd116100c657806323b872dd1461019d5780632d296bf1146101bd5780633102be4c146101d05780634a0706be146101fd57600080fd5b8063166ab6be146100ed5780631caaa4871461012a5780632397e4d71461017d575b600080fd5b3480156100f957600080fd5b50610128610108366004610d1d565b600091825260036020526040909120805460ff1916911515919091179055565b005b34801561013657600080fd5b50610160610145366004610d52565b6001602052600090815260409020546001600160a01b031681565b6040516001600160a01b0390911681526020015b60405180910390f35b34801561018957600080fd5b50610128610198366004610d52565b6103b0565b3480156101a957600080fd5b506101286101b8366004610d87565b61044f565b6101286101cb366004610d52565b610688565b3480156101dc57600080fd5b506101f06101eb366004610d52565b61087d565b6040516101749190610dc3565b34801561020957600080fd5b50610128610218366004610eb3565b6108e9565b34801561022957600080fd5b50610160610238366004610d52565b6000908152600160205260409020546001600160a01b031690565b34801561025f57600080fd5b5061028961026e366004610f4c565b6001600160a01b031660009081526020819052604090205490565b604051908152602001610174565b3480156102a357600080fd5b506102b76102b2366004610d52565b610a8c565b60405161017493929190610fb4565b3480156102d257600080fd5b506102f66102e1366004610d52565b60036020526000908152604090205460ff1681565b6040519015158152602001610174565b34801561031257600080fd5b50610160610321366004610ff7565b610c5e565b34801561033257600080fd5b50610289610341366004610d52565b60026020526000908152604090205481565b34801561035f57600080fd5b5061028961036e366004610f4c565b60006020819052908152604090205481565b34801561038c57600080fd5b506102f661039b366004610d52565b60009081526003602052604090205460ff1690565b6000818152600160205260409020546001600160a01b0316331461041b5760405162461bcd60e51b815260206004820152601960248201527f4f6e6c79206f776e65722063616e2073656c6c20746f6b656e0000000000000060448201526064015b60405180910390fd5b6000818152600360205260409020805460ff191660011790556000908152600260205260409020674563918244f400009055565b6000818152600160205260409020546001600160a01b039081169084166104d45760405162461bcd60e51b815260206004820152603360248201527f56616c69646174696f6e204661696c65643a2053656c6c6572206d757374206e6044820152726f7420626520656d707479206164647265737360681b6064820152608401610412565b836001600160a01b0316816001600160a01b0316146105455760405162461bcd60e51b815260206004820152602760248201527f56616c69646174696f6e204661696c65643a2053656c6c6572206d7573742062604482015266329037bbb732b960c91b6064820152608401610412565b6001600160a01b0383166105b65760405162461bcd60e51b815260206004820152603260248201527f56616c69646174696f6e204661696c65643a204275796572206d757374206e6f6044820152717420626520656d707479206164647265737360701b6064820152608401610412565b6001600160a01b03841660009081526020819052604081208054600192906105df90849061102f565b9091555050600082815260016020818152604080842080546001600160a01b03191690556001600160a01b0387168452908390528220805491929091610626908490611048565b909155505060008281526001602052604080822080546001600160a01b0319166001600160a01b0387811691821790925591518593918516917fddf252ad1be2c89b69c2b068fc378daa952ba7f163c4a11628f55a4df523b3ef91a450505050565b60008181526003602052604090205460ff166106dd5760405162461bcd60e51b8152602060048201526014602482015273546f6b656e206973206e6f74206f6e2073616c6560601b6044820152606401610412565b60008181526002602052604090205434101561072c5760405162461bcd60e51b815260206004820152600e60248201526d09cdee840cadcdeeaced0408aa8960931b6044820152606401610412565b6000818152600160205260409020546001600160a01b0316338190036107945760405162461bcd60e51b815260206004820152601d60248201527f596f752063616e6e6f742062757920796f7572206f776e20746f6b656e0000006044820152606401610412565b6000828152600260205260408082205490516001600160a01b0384169282156108fc02929190818181858888f193505050501580156107d7573d6000803e3d6000fd5b506107e381338461044f565b600082815260046020908152604080832080546001810182559084528284200180546001600160a01b031916339081179091558584526002909252909120546108fc90610830903461102f565b6040518115909202916000818181858888f19350505050158015610858573d6000803e3d6000fd5b50506000908152600360209081526040808320805460ff191690556002909152812055565b6000818152600460209081526040918290208054835181840281018401909452808452606093928301828280156108dd57602002820191906000526020600020905b81546001600160a01b031681526001909101906020018083116108bf575b50505050509050919050565b6001600160a01b03841661093f5760405162461bcd60e51b815260206004820152601d60248201527f456d70747920616464726573732063616e6e6f74206d696e74204e46540000006044820152606401610412565b6005546000818152600160205260409020546001600160a01b0316156109b75760405162461bcd60e51b815260206004820152602760248201527f3120746f6b656e49642063616e206f6e6c792062652061737369676e656420746044820152661bc80c4813919560ca1b6064820152608401610412565b604080516060810182528581526020810185905290810183905260058054600181018255600091909152815160039091027f036b6384b5eca791c62761152d0c79bb0604c104a5fb6f4eb0703f3154bb3db001908190610a1790826110e4565b5060208201516001820190610a2c90826110e4565b5060408201516002820190610a4190826110e4565b50505060008181526004602090815260408220805460018101825590835291200180546001600160a01b0319166001600160a01b038716179055610a858582610c96565b5050505050565b60058181548110610a9c57600080fd5b9060005260206000209060030201600091509050806000018054610abf9061105b565b80601f0160208091040260200160405190810160405280929190818152602001828054610aeb9061105b565b8015610b385780601f10610b0d57610100808354040283529160200191610b38565b820191906000526020600020905b815481529060010190602001808311610b1b57829003601f168201915b505050505090806001018054610b4d9061105b565b80601f0160208091040260200160405190810160405280929190818152602001828054610b799061105b565b8015610bc65780601f10610b9b57610100808354040283529160200191610bc6565b820191906000526020600020905b815481529060010190602001808311610ba957829003601f168201915b505050505090806002018054610bdb9061105b565b80601f0160208091040260200160405190810160405280929190818152602001828054610c079061105b565b8015610c545780601f10610c2957610100808354040283529160200191610c54565b820191906000526020600020905b815481529060010190602001808311610c3757829003601f168201915b5050505050905083565b60046020528160005260406000208181548110610c7a57600080fd5b6000918252602090912001546001600160a01b03169150829050565b600081815260016020818152604080842080546001600160a01b0319166001600160a01b0388169081179091558452908390528220805491929091610cdc908490611048565b909155505060405181906001600160a01b038416906000907fddf252ad1be2c89b69c2b068fc378daa952ba7f163c4a11628f55a4df523b3ef908290a45050565b60008060408385031215610d3057600080fd5b8235915060208301358015158114610d4757600080fd5b809150509250929050565b600060208284031215610d6457600080fd5b5035919050565b80356001600160a01b0381168114610d8257600080fd5b919050565b600080600060608486031215610d9c57600080fd5b610da584610d6b565b9250610db360208501610d6b565b9150604084013590509250925092565b6020808252825182820181905260009190848201906040850190845b81811015610e045783516001600160a01b031683529284019291840191600101610ddf565b50909695505050505050565b634e487b7160e01b600052604160045260246000fd5b600082601f830112610e3757600080fd5b813567ffffffffffffffff80821115610e5257610e52610e10565b604051601f8301601f19908116603f01168101908282118183101715610e7a57610e7a610e10565b81604052838152866020858801011115610e9357600080fd5b836020870160208301376000602085830101528094505050505092915050565b60008060008060808587031215610ec957600080fd5b610ed285610d6b565b9350602085013567ffffffffffffffff80821115610eef57600080fd5b610efb88838901610e26565b94506040870135915080821115610f1157600080fd5b610f1d88838901610e26565b93506060870135915080821115610f3357600080fd5b50610f4087828801610e26565b91505092959194509250565b600060208284031215610f5e57600080fd5b610f6782610d6b565b9392505050565b6000815180845260005b81811015610f9457602081850181015186830182015201610f78565b506000602082860101526020601f19601f83011685010191505092915050565b606081526000610fc76060830186610f6e565b8281036020840152610fd98186610f6e565b90508281036040840152610fed8185610f6e565b9695505050505050565b6000806040838503121561100a57600080fd5b50508035926020909101359150565b634e487b7160e01b600052601160045260246000fd5b8181038181111561104257611042611019565b92915050565b8082018082111561104257611042611019565b600181811c9082168061106f57607f821691505b60208210810361108f57634e487b7160e01b600052602260045260246000fd5b50919050565b601f8211156110df57600081815260208120601f850160051c810160208610156110bc5750805b601f850160051c820191505b818110156110db578281556001016110c8565b5050505b505050565b815167ffffffffffffffff8111156110fe576110fe610e10565b6111128161110c845461105b565b84611095565b602080601f831160018114611147576000841561112f5750858301515b600019600386901b1c1916600185901b1785556110db565b600085815260208120601f198616915b8281101561117657888601518255948401946001909101908401611157565b50858210156111945787850151600019600388901b60f8161c191681555b5050505050600190811b0190555056fea264697066735822122088e7a7b1cbe88365f116f554e1b5ed0eee0c7effc2ec22d0c6f59aad60f81e0364736f6c63430008130033",
    "sourcePath": "c:/Users/cygnu/Downloads/Practice_2/contracts/myNFT.sol",
    "compiler": {
        "name": "solc",
        "version": "0.8.19+commit.7dd6d404"
    },
    "functionHashes": {
        "balanceOf(address)": "70a08231",
        "buyToken(uint256)": "2d296bf1",
        "images(uint256)": "84856482",
        "isForSale(uint256)": "8546d002",
        "isOnSale(uint256)": "f0f2805f",
        "mint(address,string,string,string)": "4a0706be",
        "onSale(uint256,bool)": "166ab6be",
        "ownerHistoryOf(uint256)": "3102be4c",
        "ownerOf(uint256)": "6352211e",
        "sellToken(uint256)": "2397e4d7",
        "tokenBalance(address)": "eedc966a",
        "tokenOwner(uint256)": "1caaa487",
        "tokenOwnerHistory(uint256,uint256)": "cbd894c7",
        "tokenPrice(uint256)": "d4ddce8a",
        "transferFrom(address,address,uint256)": "23b872dd"
    },
    "gasEstimates": {
        "creation": {
            "codeDepositCost": "914000",
            "executionCost": "infinite",
            "totalCost": "infinite"
        },
        "external": {
            "balanceOf(address)": "2585",
            "buyToken(uint256)": "infinite",
            "images(uint256)": "infinite",
            "isForSale(uint256)": "2539",
            "isOnSale(uint256)": "2538",
            "mint(address,string,string,string)": "infinite",
            "onSale(uint256,bool)": "24606",
            "ownerHistoryOf(uint256)": "infinite",
            "ownerOf(uint256)": "2489",
            "sellToken(uint256)": "48960",
            "tokenBalance(address)": "2588",
            "tokenOwner(uint256)": "2512",
            "tokenOwnerHistory(uint256,uint256)": "4716",
            "tokenPrice(uint256)": "2482",
            "transferFrom(address,address,uint256)": "infinite"
        },
        "internal": {
            "_exists(uint256)": "infinite",
            "_mint(address,uint256)": "50655"
        }
    }
}