{
  "contractName": "MyNFT",
  "abi": [
    {
      "inputs": [],
      "stateMutability": "nonpayable",
      "type": "constructor"
    },
    {
      "anonymous": false,
      "inputs": [
        {
          "indexed": true,
          "internalType": "address",
          "name": "owner",
          "type": "address"
        },
        {
          "indexed": true,
          "internalType": "address",
          "name": "approved",
          "type": "address"
        },
        {
          "indexed": true,
          "internalType": "uint256",
          "name": "tokenId",
          "type": "uint256"
        }
      ],
      "name": "Approval",
      "type": "event"
    },
    {
      "anonymous": false,
      "inputs": [
        {
          "indexed": true,
          "internalType": "address",
          "name": "owner",
          "type": "address"
        },
        {
          "indexed": true,
          "internalType": "address",
          "name": "operator",
          "type": "address"
        },
        {
          "indexed": false,
          "internalType": "bool",
          "name": "approved",
          "type": "bool"
        }
      ],
      "name": "ApprovalForAll",
      "type": "event"
    },
    {
      "anonymous": false,
      "inputs": [
        {
          "indexed": false,
          "internalType": "uint256",
          "name": "_fromTokenId",
          "type": "uint256"
        },
        {
          "indexed": false,
          "internalType": "uint256",
          "name": "_toTokenId",
          "type": "uint256"
        }
      ],
      "name": "BatchMetadataUpdate",
      "type": "event"
    },
    {
      "anonymous": false,
      "inputs": [
        {
          "indexed": false,
          "internalType": "uint256",
          "name": "_tokenId",
          "type": "uint256"
        }
      ],
      "name": "MetadataUpdate",
      "type": "event"
    },
    {
      "anonymous": false,
      "inputs": [
        {
          "indexed": true,
          "internalType": "address",
          "name": "previousOwner",
          "type": "address"
        },
        {
          "indexed": true,
          "internalType": "address",
          "name": "newOwner",
          "type": "address"
        }
      ],
      "name": "OwnershipTransferred",
      "type": "event"
    },
    {
      "anonymous": false,
      "inputs": [
        {
          "indexed": true,
          "internalType": "address",
          "name": "from",
          "type": "address"
        },
        {
          "indexed": true,
          "internalType": "address",
          "name": "to",
          "type": "address"
        },
        {
          "indexed": true,
          "internalType": "uint256",
          "name": "tokenId",
          "type": "uint256"
        }
      ],
      "name": "Transfer",
      "type": "event"
    },
    {
      "inputs": [
        {
          "internalType": "address",
          "name": "to",
          "type": "address"
        },
        {
          "internalType": "uint256",
          "name": "tokenId",
          "type": "uint256"
        }
      ],
      "name": "approve",
      "outputs": [],
      "stateMutability": "nonpayable",
      "type": "function"
    },
    {
      "inputs": [
        {
          "internalType": "address",
          "name": "owner",
          "type": "address"
        }
      ],
      "name": "balanceOf",
      "outputs": [
        {
          "internalType": "uint256",
          "name": "",
          "type": "uint256"
        }
      ],
      "stateMutability": "view",
      "type": "function",
      "constant": true
    },
    {
      "inputs": [
        {
          "internalType": "uint256",
          "name": "tokenId",
          "type": "uint256"
        }
      ],
      "name": "getApproved",
      "outputs": [
        {
          "internalType": "address",
          "name": "",
          "type": "address"
        }
      ],
      "stateMutability": "view",
      "type": "function",
      "constant": true
    },
    {
      "inputs": [
        {
          "internalType": "address",
          "name": "owner",
          "type": "address"
        },
        {
          "internalType": "address",
          "name": "operator",
          "type": "address"
        }
      ],
      "name": "isApprovedForAll",
      "outputs": [
        {
          "internalType": "bool",
          "name": "",
          "type": "bool"
        }
      ],
      "stateMutability": "view",
      "type": "function",
      "constant": true
    },
    {
      "inputs": [],
      "name": "name",
      "outputs": [
        {
          "internalType": "string",
          "name": "",
          "type": "string"
        }
      ],
      "stateMutability": "view",
      "type": "function",
      "constant": true
    },
    {
      "inputs": [],
      "name": "owner",
      "outputs": [
        {
          "internalType": "address",
          "name": "",
          "type": "address"
        }
      ],
      "stateMutability": "view",
      "type": "function",
      "constant": true
    },
    {
      "inputs": [
        {
          "internalType": "uint256",
          "name": "tokenId",
          "type": "uint256"
        }
      ],
      "name": "ownerOf",
      "outputs": [
        {
          "internalType": "address",
          "name": "",
          "type": "address"
        }
      ],
      "stateMutability": "view",
      "type": "function",
      "constant": true
    },
    {
      "inputs": [],
      "name": "renounceOwnership",
      "outputs": [],
      "stateMutability": "nonpayable",
      "type": "function"
    },
    {
      "inputs": [
        {
          "internalType": "address",
          "name": "from",
          "type": "address"
        },
        {
          "internalType": "address",
          "name": "to",
          "type": "address"
        },
        {
          "internalType": "uint256",
          "name": "tokenId",
          "type": "uint256"
        }
      ],
      "name": "safeTransferFrom",
      "outputs": [],
      "stateMutability": "nonpayable",
      "type": "function"
    },
    {
      "inputs": [
        {
          "internalType": "address",
          "name": "from",
          "type": "address"
        },
        {
          "internalType": "address",
          "name": "to",
          "type": "address"
        },
        {
          "internalType": "uint256",
          "name": "tokenId",
          "type": "uint256"
        },
        {
          "internalType": "bytes",
          "name": "data",
          "type": "bytes"
        }
      ],
      "name": "safeTransferFrom",
      "outputs": [],
      "stateMutability": "nonpayable",
      "type": "function"
    },
    {
      "inputs": [
        {
          "internalType": "address",
          "name": "operator",
          "type": "address"
        },
        {
          "internalType": "bool",
          "name": "approved",
          "type": "bool"
        }
      ],
      "name": "setApprovalForAll",
      "outputs": [],
      "stateMutability": "nonpayable",
      "type": "function"
    },
    {
      "inputs": [],
      "name": "symbol",
      "outputs": [
        {
          "internalType": "string",
          "name": "",
          "type": "string"
        }
      ],
      "stateMutability": "view",
      "type": "function",
      "constant": true
    },
    {
      "inputs": [
        {
          "internalType": "address",
          "name": "from",
          "type": "address"
        },
        {
          "internalType": "address",
          "name": "to",
          "type": "address"
        },
        {
          "internalType": "uint256",
          "name": "tokenId",
          "type": "uint256"
        }
      ],
      "name": "transferFrom",
      "outputs": [],
      "stateMutability": "nonpayable",
      "type": "function"
    },
    {
      "inputs": [
        {
          "internalType": "address",
          "name": "newOwner",
          "type": "address"
        }
      ],
      "name": "transferOwnership",
      "outputs": [],
      "stateMutability": "nonpayable",
      "type": "function"
    },
    {
      "inputs": [
        {
          "internalType": "bytes4",
          "name": "interfaceId",
          "type": "bytes4"
        }
      ],
      "name": "supportsInterface",
      "outputs": [
        {
          "internalType": "bool",
          "name": "",
          "type": "bool"
        }
      ],
      "stateMutability": "view",
      "type": "function",
      "constant": true
    },
    {
      "inputs": [
        {
          "internalType": "uint256",
          "name": "tokenId",
          "type": "uint256"
        }
      ],
      "name": "tokenURI",
      "outputs": [
        {
          "internalType": "string",
          "name": "",
          "type": "string"
        }
      ],
      "stateMutability": "view",
      "type": "function",
      "constant": true
    },
    {
      "inputs": [
        {
          "internalType": "address",
          "name": "recipient",
          "type": "address"
        },
        {
          "internalType": "string",
          "name": "tokenUriParam",
          "type": "string"
        },
        {
          "internalType": "uint256",
          "name": "price",
          "type": "uint256"
        }
      ],
      "name": "mintNFT",
      "outputs": [
        {
          "internalType": "uint256",
          "name": "",
          "type": "uint256"
        }
      ],
      "stateMutability": "nonpayable",
      "type": "function"
    },
    {
      "inputs": [
        {
          "internalType": "uint256",
          "name": "tokenId",
          "type": "uint256"
        }
      ],
      "name": "buyNFT",
      "outputs": [],
      "stateMutability": "payable",
      "type": "function",
      "payable": true
    },
    {
      "inputs": [
        {
          "internalType": "uint256",
          "name": "tokenId",
          "type": "uint256"
        }
      ],
      "name": "getItem",
      "outputs": [
        {
          "internalType": "uint256",
          "name": "id",
          "type": "uint256"
        },
        {
          "internalType": "address",
          "name": "owner",
          "type": "address"
        },
        {
          "internalType": "uint256",
          "name": "price",
          "type": "uint256"
        }
      ],
      "stateMutability": "view",
      "type": "function",
      "constant": true
    }
  ],
  "bytecode": "0x60806040523480156200001157600080fd5b506040518060400160405280600581526020017f4d794e46540000000000000000000000000000000000000000000000000000008152506040518060400160405280600481526020017f4d4e465400000000000000000000000000000000000000000000000000000000815250816000908051906020019062000096929190620001a6565b508060019080519060200190620000af929190620001a6565b505050620000d2620000c6620000d860201b60201c565b620000e060201b60201c565b620002bb565b600033905090565b6000600660009054906101000a900473ffffffffffffffffffffffffffffffffffffffff16905081600660006101000a81548173ffffffffffffffffffffffffffffffffffffffff021916908373ffffffffffffffffffffffffffffffffffffffff1602179055508173ffffffffffffffffffffffffffffffffffffffff168173ffffffffffffffffffffffffffffffffffffffff167f8be0079c531659141344cd1fd0a4f28419497f9722a3daafe3b4186f6b6457e060405160405180910390a35050565b828054620001b49062000285565b90600052602060002090601f016020900481019282620001d8576000855562000224565b82601f10620001f357805160ff191683800117855562000224565b8280016001018555821562000224579182015b828111156200022357825182559160200191906001019062000206565b5b50905062000233919062000237565b5090565b5b808211156200025257600081600090555060010162000238565b5090565b7f4e487b7100000000000000000000000000000000000000000000000000000000600052602260045260246000fd5b600060028204905060018216806200029e57607f821691505b60208210811415620002b557620002b462000256565b5b50919050565b61326680620002cb6000396000f3fe6080604052600436106101145760003560e01c80636352211e116100a0578063a22cb46511610064578063a22cb465146103b8578063b88d4fde146103e1578063c87b56dd1461040a578063e985e9c514610447578063f2fde38b1461048457610114565b80636352211e146102d157806370a082311461030e578063715018a61461034b5780638da5cb5b1461036257806395d89b411461038d57610114565b8063095ea7b3116100e7578063095ea7b3146101fb57806323b872dd146102245780633129e7731461024d57806342842e0e1461028c57806351ed8288146102b557610114565b806301ffc9a71461011957806306fdde0314610156578063081812fc1461018157806308598df0146101be575b600080fd5b34801561012557600080fd5b50610140600480360381019061013b9190612183565b6104ad565b60405161014d91906121cb565b60405180910390f35b34801561016257600080fd5b5061016b6104bf565b604051610178919061227f565b60405180910390f35b34801561018d57600080fd5b506101a860048036038101906101a391906122d7565b610551565b6040516101b59190612345565b60405180910390f35b3480156101ca57600080fd5b506101e560048036038101906101e091906124c1565b610597565b6040516101f2919061253f565b60405180910390f35b34801561020757600080fd5b50610222600480360381019061021d919061255a565b61067a565b005b34801561023057600080fd5b5061024b6004803603810190610246919061259a565b610792565b005b34801561025957600080fd5b50610274600480360381019061026f91906122d7565b6107f2565b604051610283939291906125ed565b60405180910390f35b34801561029857600080fd5b506102b360048036038101906102ae919061259a565b6108e8565b005b6102cf60048036038101906102ca91906122d7565b610908565b005b3480156102dd57600080fd5b506102f860048036038101906102f391906122d7565b610a8f565b6040516103059190612345565b60405180910390f35b34801561031a57600080fd5b5061033560048036038101906103309190612624565b610b16565b604051610342919061253f565b60405180910390f35b34801561035757600080fd5b50610360610bce565b005b34801561036e57600080fd5b50610377610be2565b6040516103849190612345565b60405180910390f35b34801561039957600080fd5b506103a2610c0c565b6040516103af919061227f565b60405180910390f35b3480156103c457600080fd5b506103df60048036038101906103da919061267d565b610c9e565b005b3480156103ed57600080fd5b506104086004803603810190610403919061275e565b610cb4565b005b34801561041657600080fd5b50610431600480360381019061042c91906122d7565b610d16565b60405161043e919061227f565b60405180910390f35b34801561045357600080fd5b5061046e600480360381019061046991906127e1565b610d28565b60405161047b91906121cb565b60405180910390f35b34801561049057600080fd5b506104ab60048036038101906104a69190612624565b610dbc565b005b60006104b882610e40565b9050919050565b6060600080546104ce90612850565b80601f01602080910402602001604051908101604052809291908181526020018280546104fa90612850565b80156105475780601f1061051c57610100808354040283529160200191610547565b820191906000526020600020905b81548152906001019060200180831161052a57829003601f168201915b5050505050905090565b600061055c82610ea1565b6004600083815260200190815260200160002060009054906101000a900473ffffffffffffffffffffffffffffffffffffffff169050919050565b60006105a1610eec565b6105ab6008610f6a565b60006105b76008610f80565b90506105c38582610f8e565b6105cd81856111ac565b60405180606001604052808281526020018673ffffffffffffffffffffffffffffffffffffffff16815260200184815250600960008381526020019081526020016000206000820151816000015560208201518160010160006101000a81548173ffffffffffffffffffffffffffffffffffffffff021916908373ffffffffffffffffffffffffffffffffffffffff16021790555060408201518160020155905050809150509392505050565b600061068582610a8f565b90508073ffffffffffffffffffffffffffffffffffffffff168373ffffffffffffffffffffffffffffffffffffffff1614156106f6576040517f08c379a00000000000000000000000000000000000000000000000000000000081526004016106ed906128f4565b60405180910390fd5b8073ffffffffffffffffffffffffffffffffffffffff16610715611257565b73ffffffffffffffffffffffffffffffffffffffff16148061074457506107438161073e611257565b610d28565b5b610783576040517f08c379a000000000000000000000000000000000000000000000000000000000815260040161077a90612986565b60405180910390fd5b61078d838361125f565b505050565b6107a361079d611257565b82611318565b6107e2576040517f08c379a00000000000000000000000000000000000000000000000000000000081526004016107d990612a18565b60405180910390fd5b6107ed8383836113ad565b505050565b6000806000610800846116a7565b61083f576040517f08c379a000000000000000000000000000000000000000000000000000000000815260040161083690612a84565b60405180910390fd5b600060096000868152602001908152602001600020604051806060016040529081600082015481526020016001820160009054906101000a900473ffffffffffffffffffffffffffffffffffffffff1673ffffffffffffffffffffffffffffffffffffffff1673ffffffffffffffffffffffffffffffffffffffff1681526020016002820154815250509050806000015181602001518260400151935093509350509193909250565b61090383838360405180602001604052806000815250610cb4565b505050565b610911816116a7565b610950576040517f08c379a000000000000000000000000000000000000000000000000000000000815260040161094790612a84565b60405180910390fd5b60096000828152602001908152602001600020600201543410156109a9576040517f08c379a00000000000000000000000000000000000000000000000000000000081526004016109a090612b16565b60405180910390fd5b60006009600083815260200190815260200160002060010160009054906101000a900473ffffffffffffffffffffffffffffffffffffffff1690506109ef8133846113ad565b8073ffffffffffffffffffffffffffffffffffffffff166108fc349081150290604051600060405180830381858888f19350505050158015610a35573d6000803e3d6000fd5b50336009600084815260200190815260200160002060010160006101000a81548173ffffffffffffffffffffffffffffffffffffffff021916908373ffffffffffffffffffffffffffffffffffffffff1602179055505050565b600080610a9b836116e8565b9050600073ffffffffffffffffffffffffffffffffffffffff168173ffffffffffffffffffffffffffffffffffffffff161415610b0d576040517f08c379a0000000000000000000000000000000000000000000000000000000008152600401610b0490612b82565b60405180910390fd5b80915050919050565b60008073ffffffffffffffffffffffffffffffffffffffff168273ffffffffffffffffffffffffffffffffffffffff161415610b87576040517f08c379a0000000000000000000000000000000000000000000000000000000008152600401610b7e90612c14565b60405180910390fd5b600360008373ffffffffffffffffffffffffffffffffffffffff1673ffffffffffffffffffffffffffffffffffffffff168152602001908152602001600020549050919050565b610bd6610eec565b610be06000611725565b565b6000600660009054906101000a900473ffffffffffffffffffffffffffffffffffffffff16905090565b606060018054610c1b90612850565b80601f0160208091040260200160405190810160405280929190818152602001828054610c4790612850565b8015610c945780601f10610c6957610100808354040283529160200191610c94565b820191906000526020600020905b815481529060010190602001808311610c7757829003601f168201915b5050505050905090565b610cb0610ca9611257565b83836117eb565b5050565b610cc5610cbf611257565b83611318565b610d04576040517f08c379a0000000000000000000000000000000000000000000000000000000008152600401610cfb90612a18565b60405180910390fd5b610d1084848484611958565b50505050565b6060610d21826119b4565b9050919050565b6000600560008473ffffffffffffffffffffffffffffffffffffffff1673ffffffffffffffffffffffffffffffffffffffff16815260200190815260200160002060008373ffffffffffffffffffffffffffffffffffffffff1673ffffffffffffffffffffffffffffffffffffffff16815260200190815260200160002060009054906101000a900460ff16905092915050565b610dc4610eec565b600073ffffffffffffffffffffffffffffffffffffffff168173ffffffffffffffffffffffffffffffffffffffff161415610e34576040517f08c379a0000000000000000000000000000000000000000000000000000000008152600401610e2b90612ca6565b60405180910390fd5b610e3d81611725565b50565b6000634906490660e01b7bffffffffffffffffffffffffffffffffffffffffffffffffffffffff1916827bffffffffffffffffffffffffffffffffffffffffffffffffffffffff19161480610e9a5750610e9982611ac7565b5b9050919050565b610eaa816116a7565b610ee9576040517f08c379a0000000000000000000000000000000000000000000000000000000008152600401610ee090612b82565b60405180910390fd5b50565b610ef4611257565b73ffffffffffffffffffffffffffffffffffffffff16610f12610be2565b73ffffffffffffffffffffffffffffffffffffffff1614610f68576040517f08c379a0000000000000000000000000000000000000000000000000000000008152600401610f5f90612d12565b60405180910390fd5b565b6001816000016000828254019250508190555050565b600081600001549050919050565b600073ffffffffffffffffffffffffffffffffffffffff168273ffffffffffffffffffffffffffffffffffffffff161415610ffe576040517f08c379a0000000000000000000000000000000000000000000000000000000008152600401610ff590612d7e565b60405180910390fd5b611007816116a7565b15611047576040517f08c379a000000000000000000000000000000000000000000000000000000000815260040161103e90612dea565b60405180910390fd5b611055600083836001611ba9565b61105e816116a7565b1561109e576040517f08c379a000000000000000000000000000000000000000000000000000000000815260040161109590612dea565b60405180910390fd5b6001600360008473ffffffffffffffffffffffffffffffffffffffff1673ffffffffffffffffffffffffffffffffffffffff16815260200190815260200160002060008282540192505081905550816002600083815260200190815260200160002060006101000a81548173ffffffffffffffffffffffffffffffffffffffff021916908373ffffffffffffffffffffffffffffffffffffffff160217905550808273ffffffffffffffffffffffffffffffffffffffff16600073ffffffffffffffffffffffffffffffffffffffff167fddf252ad1be2c89b69c2b068fc378daa952ba7f163c4a11628f55a4df523b3ef60405160405180910390a46111a8600083836001611baf565b5050565b6111b5826116a7565b6111f4576040517f08c379a00000000000000000000000000000000000000000000000000000000081526004016111eb90612e7c565b60405180910390fd5b8060076000848152602001908152602001600020908051906020019061121b929190612074565b507ff8e1a15aba9398e019f0b49df1a4fde98ee17ae345cb5f6b5e2c27f5033e8ce78260405161124b919061253f565b60405180910390a15050565b600033905090565b816004600083815260200190815260200160002060006101000a81548173ffffffffffffffffffffffffffffffffffffffff021916908373ffffffffffffffffffffffffffffffffffffffff160217905550808273ffffffffffffffffffffffffffffffffffffffff166112d283610a8f565b73ffffffffffffffffffffffffffffffffffffffff167f8c5be1e5ebec7d5bd14f71427d1e84f3dd0314c0f7b2291e5b200ac8c7c3b92560405160405180910390a45050565b60008061132483610a8f565b90508073ffffffffffffffffffffffffffffffffffffffff168473ffffffffffffffffffffffffffffffffffffffff16148061136657506113658185610d28565b5b806113a457508373ffffffffffffffffffffffffffffffffffffffff1661138c84610551565b73ffffffffffffffffffffffffffffffffffffffff16145b91505092915050565b8273ffffffffffffffffffffffffffffffffffffffff166113cd82610a8f565b73ffffffffffffffffffffffffffffffffffffffff1614611423576040517f08c379a000000000000000000000000000000000000000000000000000000000815260040161141a90612f0e565b60405180910390fd5b600073ffffffffffffffffffffffffffffffffffffffff168273ffffffffffffffffffffffffffffffffffffffff161415611493576040517f08c379a000000000000000000000000000000000000000000000000000000000815260040161148a90612fa0565b60405180910390fd5b6114a08383836001611ba9565b8273ffffffffffffffffffffffffffffffffffffffff166114c082610a8f565b73ffffffffffffffffffffffffffffffffffffffff1614611516576040517f08c379a000000000000000000000000000000000000000000000000000000000815260040161150d90612f0e565b60405180910390fd5b6004600082815260200190815260200160002060006101000a81549073ffffffffffffffffffffffffffffffffffffffff02191690556001600360008573ffffffffffffffffffffffffffffffffffffffff1673ffffffffffffffffffffffffffffffffffffffff168152602001908152602001600020600082825403925050819055506001600360008473ffffffffffffffffffffffffffffffffffffffff1673ffffffffffffffffffffffffffffffffffffffff16815260200190815260200160002060008282540192505081905550816002600083815260200190815260200160002060006101000a81548173ffffffffffffffffffffffffffffffffffffffff021916908373ffffffffffffffffffffffffffffffffffffffff160217905550808273ffffffffffffffffffffffffffffffffffffffff168473ffffffffffffffffffffffffffffffffffffffff167fddf252ad1be2c89b69c2b068fc378daa952ba7f163c4a11628f55a4df523b3ef60405160405180910390a46116a28383836001611baf565b505050565b60008073ffffffffffffffffffffffffffffffffffffffff166116c9836116e8565b73ffffffffffffffffffffffffffffffffffffffff1614159050919050565b60006002600083815260200190815260200160002060009054906101000a900473ffffffffffffffffffffffffffffffffffffffff169050919050565b6000600660009054906101000a900473ffffffffffffffffffffffffffffffffffffffff16905081600660006101000a81548173ffffffffffffffffffffffffffffffffffffffff021916908373ffffffffffffffffffffffffffffffffffffffff1602179055508173ffffffffffffffffffffffffffffffffffffffff168173ffffffffffffffffffffffffffffffffffffffff167f8be0079c531659141344cd1fd0a4f28419497f9722a3daafe3b4186f6b6457e060405160405180910390a35050565b8173ffffffffffffffffffffffffffffffffffffffff168373ffffffffffffffffffffffffffffffffffffffff16141561185a576040517f08c379a00000000000000000000000000000000000000000000000000000000081526004016118519061300c565b60405180910390fd5b80600560008573ffffffffffffffffffffffffffffffffffffffff1673ffffffffffffffffffffffffffffffffffffffff16815260200190815260200160002060008473ffffffffffffffffffffffffffffffffffffffff1673ffffffffffffffffffffffffffffffffffffffff16815260200190815260200160002060006101000a81548160ff0219169083151502179055508173ffffffffffffffffffffffffffffffffffffffff168373ffffffffffffffffffffffffffffffffffffffff167f17307eab39ab6107e8899845ad3d59bd9653f200f220920489ca2b5937696c318360405161194b91906121cb565b60405180910390a3505050565b6119638484846113ad565b61196f84848484611bb5565b6119ae576040517f08c379a00000000000000000000000000000000000000000000000000000000081526004016119a59061309e565b60405180910390fd5b50505050565b60606119bf82610ea1565b60006007600084815260200190815260200160002080546119df90612850565b80601f0160208091040260200160405190810160405280929190818152602001828054611a0b90612850565b8015611a585780601f10611a2d57610100808354040283529160200191611a58565b820191906000526020600020905b815481529060010190602001808311611a3b57829003601f168201915b505050505090506000611a69611d3d565b9050600081511415611a7f578192505050611ac2565b600082511115611ab4578082604051602001611a9c9291906130fa565b60405160208183030381529060405292505050611ac2565b611abd84611d54565b925050505b919050565b60007f80ac58cd000000000000000000000000000000000000000000000000000000007bffffffffffffffffffffffffffffffffffffffffffffffffffffffff1916827bffffffffffffffffffffffffffffffffffffffffffffffffffffffff19161480611b9257507f5b5e139f000000000000000000000000000000000000000000000000000000007bffffffffffffffffffffffffffffffffffffffffffffffffffffffff1916827bffffffffffffffffffffffffffffffffffffffffffffffffffffffff1916145b80611ba25750611ba182611dbc565b5b9050919050565b50505050565b50505050565b6000611bd68473ffffffffffffffffffffffffffffffffffffffff16611e26565b15611d30578373ffffffffffffffffffffffffffffffffffffffff1663150b7a02611bff611257565b8786866040518563ffffffff1660e01b8152600401611c219493929190613173565b6020604051808303816000875af1925050508015611c5d57506040513d601f19601f82011682018060405250810190611c5a91906131d4565b60015b611ce0573d8060008114611c8d576040519150601f19603f3d011682016040523d82523d6000602084013e611c92565b606091505b50600081511415611cd8576040517f08c379a0000000000000000000000000000000000000000000000000000000008152600401611ccf9061309e565b60405180910390fd5b805181602001fd5b63150b7a0260e01b7bffffffffffffffffffffffffffffffffffffffffffffffffffffffff1916817bffffffffffffffffffffffffffffffffffffffffffffffffffffffff191614915050611d35565b600190505b949350505050565b606060405180602001604052806000815250905090565b6060611d5f82610ea1565b6000611d69611d3d565b90506000815111611d895760405180602001604052806000815250611db4565b80611d9384611e49565b604051602001611da49291906130fa565b6040516020818303038152906040525b915050919050565b60007f01ffc9a7000000000000000000000000000000000000000000000000000000007bffffffffffffffffffffffffffffffffffffffffffffffffffffffff1916827bffffffffffffffffffffffffffffffffffffffffffffffffffffffff1916149050919050565b6000808273ffffffffffffffffffffffffffffffffffffffff163b119050919050565b606060006001611e5884611f21565b01905060008167ffffffffffffffff811115611e7757611e76612396565b5b6040519080825280601f01601f191660200182016040528015611ea95781602001600182028036833780820191505090505b509050600082602001820190505b600115611f16578080600190039150507f3031323334353637383961626364656600000000000000000000000000000000600a86061a8153600a8581611f0057611eff613201565b5b0494506000851415611f1157611f16565b611eb7565b819350505050919050565b600080600090507a184f03e93ff9f4daa797ed6e38ed64bf6a1f0100000000000000008310611f7f577a184f03e93ff9f4daa797ed6e38ed64bf6a1f0100000000000000008381611f7557611f74613201565b5b0492506040810190505b6d04ee2d6d415b85acef81000000008310611fbc576d04ee2d6d415b85acef81000000008381611fb257611fb1613201565b5b0492506020810190505b662386f26fc100008310611feb57662386f26fc100008381611fe157611fe0613201565b5b0492506010810190505b6305f5e1008310612014576305f5e100838161200a57612009613201565b5b0492506008810190505b612710831061203957612710838161202f5761202e613201565b5b0492506004810190505b6064831061205c576064838161205257612051613201565b5b0492506002810190505b600a831061206b576001810190505b80915050919050565b82805461208090612850565b90600052602060002090601f0160209004810192826120a257600085556120e9565b82601f106120bb57805160ff19168380011785556120e9565b828001600101855582156120e9579182015b828111156120e85782518255916020019190600101906120cd565b5b5090506120f691906120fa565b5090565b5b808211156121135760008160009055506001016120fb565b5090565b6000604051905090565b600080fd5b600080fd5b60007fffffffff0000000000000000000000000000000000000000000000000000000082169050919050565b6121608161212b565b811461216b57600080fd5b50565b60008135905061217d81612157565b92915050565b60006020828403121561219957612198612121565b5b60006121a78482850161216e565b91505092915050565b60008115159050919050565b6121c5816121b0565b82525050565b60006020820190506121e060008301846121bc565b92915050565b600081519050919050565b600082825260208201905092915050565b60005b83811015612220578082015181840152602081019050612205565b8381111561222f576000848401525b50505050565b6000601f19601f8301169050919050565b6000612251826121e6565b61225b81856121f1565b935061226b818560208601612202565b61227481612235565b840191505092915050565b600060208201905081810360008301526122998184612246565b905092915050565b6000819050919050565b6122b4816122a1565b81146122bf57600080fd5b50565b6000813590506122d1816122ab565b92915050565b6000602082840312156122ed576122ec612121565b5b60006122fb848285016122c2565b91505092915050565b600073ffffffffffffffffffffffffffffffffffffffff82169050919050565b600061232f82612304565b9050919050565b61233f81612324565b82525050565b600060208201905061235a6000830184612336565b92915050565b61236981612324565b811461237457600080fd5b50565b60008135905061238681612360565b92915050565b600080fd5b600080fd5b7f4e487b7100000000000000000000000000000000000000000000000000000000600052604160045260246000fd5b6123ce82612235565b810181811067ffffffffffffffff821117156123ed576123ec612396565b5b80604052505050565b6000612400612117565b905061240c82826123c5565b919050565b600067ffffffffffffffff82111561242c5761242b612396565b5b61243582612235565b9050602081019050919050565b82818337600083830152505050565b600061246461245f84612411565b6123f6565b9050828152602081018484840111156124805761247f612391565b5b61248b848285612442565b509392505050565b600082601f8301126124a8576124a761238c565b5b81356124b8848260208601612451565b91505092915050565b6000806000606084860312156124da576124d9612121565b5b60006124e886828701612377565b935050602084013567ffffffffffffffff81111561250957612508612126565b5b61251586828701612493565b9250506040612526868287016122c2565b9150509250925092565b612539816122a1565b82525050565b60006020820190506125546000830184612530565b92915050565b6000806040838503121561257157612570612121565b5b600061257f85828601612377565b9250506020612590858286016122c2565b9150509250929050565b6000806000606084860312156125b3576125b2612121565b5b60006125c186828701612377565b93505060206125d286828701612377565b92505060406125e3868287016122c2565b9150509250925092565b60006060820190506126026000830186612530565b61260f6020830185612336565b61261c6040830184612530565b949350505050565b60006020828403121561263a57612639612121565b5b600061264884828501612377565b91505092915050565b61265a816121b0565b811461266557600080fd5b50565b60008135905061267781612651565b92915050565b6000806040838503121561269457612693612121565b5b60006126a285828601612377565b92505060206126b385828601612668565b9150509250929050565b600067ffffffffffffffff8211156126d8576126d7612396565b5b6126e182612235565b9050602081019050919050565b60006127016126fc846126bd565b6123f6565b90508281526020810184848401111561271d5761271c612391565b5b612728848285612442565b509392505050565b600082601f8301126127455761274461238c565b5b81356127558482602086016126ee565b91505092915050565b6000806000806080858703121561277857612777612121565b5b600061278687828801612377565b945050602061279787828801612377565b93505060406127a8878288016122c2565b925050606085013567ffffffffffffffff8111156127c9576127c8612126565b5b6127d587828801612730565b91505092959194509250565b600080604083850312156127f8576127f7612121565b5b600061280685828601612377565b925050602061281785828601612377565b9150509250929050565b7f4e487b7100000000000000000000000000000000000000000000000000000000600052602260045260246000fd5b6000600282049050600182168061286857607f821691505b6020821081141561287c5761287b612821565b5b50919050565b7f4552433732313a20617070726f76616c20746f2063757272656e74206f776e6560008201527f7200000000000000000000000000000000000000000000000000000000000000602082015250565b60006128de6021836121f1565b91506128e982612882565b604082019050919050565b6000602082019050818103600083015261290d816128d1565b9050919050565b7f4552433732313a20617070726f76652063616c6c6572206973206e6f7420746f60008201527f6b656e206f776e6572206f7220617070726f76656420666f7220616c6c000000602082015250565b6000612970603d836121f1565b915061297b82612914565b604082019050919050565b6000602082019050818103600083015261299f81612963565b9050919050565b7f4552433732313a2063616c6c6572206973206e6f7420746f6b656e206f776e6560008201527f72206f7220617070726f76656400000000000000000000000000000000000000602082015250565b6000612a02602d836121f1565b9150612a0d826129a6565b604082019050919050565b60006020820190508181036000830152612a31816129f5565b9050919050565b7f4572726f723a2077726f6e6720546f6b656e4964000000000000000000000000600082015250565b6000612a6e6014836121f1565b9150612a7982612a38565b602082019050919050565b60006020820190508181036000830152612a9d81612a61565b9050919050565b7f4572726f723a20746865204554482076616c75652073656e74206973206e6f7460008201527f20636f7272656374000000000000000000000000000000000000000000000000602082015250565b6000612b006028836121f1565b9150612b0b82612aa4565b604082019050919050565b60006020820190508181036000830152612b2f81612af3565b9050919050565b7f4552433732313a20696e76616c696420746f6b656e2049440000000000000000600082015250565b6000612b6c6018836121f1565b9150612b7782612b36565b602082019050919050565b60006020820190508181036000830152612b9b81612b5f565b9050919050565b7f4552433732313a2061646472657373207a65726f206973206e6f74206120766160008201527f6c6964206f776e65720000000000000000000000000000000000000000000000602082015250565b6000612bfe6029836121f1565b9150612c0982612ba2565b604082019050919050565b60006020820190508181036000830152612c2d81612bf1565b9050919050565b7f4f776e61626c653a206e6577206f776e657220697320746865207a65726f206160008201527f6464726573730000000000000000000000000000000000000000000000000000602082015250565b6000612c906026836121f1565b9150612c9b82612c34565b604082019050919050565b60006020820190508181036000830152612cbf81612c83565b9050919050565b7f4f776e61626c653a2063616c6c6572206973206e6f7420746865206f776e6572600082015250565b6000612cfc6020836121f1565b9150612d0782612cc6565b602082019050919050565b60006020820190508181036000830152612d2b81612cef565b9050919050565b7f4552433732313a206d696e7420746f20746865207a65726f2061646472657373600082015250565b6000612d686020836121f1565b9150612d7382612d32565b602082019050919050565b60006020820190508181036000830152612d9781612d5b565b9050919050565b7f4552433732313a20746f6b656e20616c7265616479206d696e74656400000000600082015250565b6000612dd4601c836121f1565b9150612ddf82612d9e565b602082019050919050565b60006020820190508181036000830152612e0381612dc7565b9050919050565b7f45524337323155524953746f726167653a2055524920736574206f66206e6f6e60008201527f6578697374656e7420746f6b656e000000000000000000000000000000000000602082015250565b6000612e66602e836121f1565b9150612e7182612e0a565b604082019050919050565b60006020820190508181036000830152612e9581612e59565b9050919050565b7f4552433732313a207472616e736665722066726f6d20696e636f72726563742060008201527f6f776e6572000000000000000000000000000000000000000000000000000000602082015250565b6000612ef86025836121f1565b9150612f0382612e9c565b604082019050919050565b60006020820190508181036000830152612f2781612eeb565b9050919050565b7f4552433732313a207472616e7366657220746f20746865207a65726f2061646460008201527f7265737300000000000000000000000000000000000000000000000000000000602082015250565b6000612f8a6024836121f1565b9150612f9582612f2e565b604082019050919050565b60006020820190508181036000830152612fb981612f7d565b9050919050565b7f4552433732313a20617070726f766520746f2063616c6c657200000000000000600082015250565b6000612ff66019836121f1565b915061300182612fc0565b602082019050919050565b6000602082019050818103600083015261302581612fe9565b9050919050565b7f4552433732313a207472616e7366657220746f206e6f6e20455243373231526560008201527f63656976657220696d706c656d656e7465720000000000000000000000000000602082015250565b60006130886032836121f1565b91506130938261302c565b604082019050919050565b600060208201905081810360008301526130b78161307b565b9050919050565b600081905092915050565b60006130d4826121e6565b6130de81856130be565b93506130ee818560208601612202565b80840191505092915050565b600061310682856130c9565b915061311282846130c9565b91508190509392505050565b600081519050919050565b600082825260208201905092915050565b60006131458261311e565b61314f8185613129565b935061315f818560208601612202565b61316881612235565b840191505092915050565b60006080820190506131886000830187612336565b6131956020830186612336565b6131a26040830185612530565b81810360608301526131b4818461313a565b905095945050505050565b6000815190506131ce81612157565b92915050565b6000602082840312156131ea576131e9612121565b5b60006131f8848285016131bf565b91505092915050565b7f4e487b7100000000000000000000000000000000000000000000000000000000600052601260045260246000fdfea264697066735822122073fe8c4f6d7f52f89a255dd1bcf2045dc57757672d82cbe8b5228d54b978193c64736f6c634300080a0033",
  "immutableReferences": {},
  "source": "// SPDX-License-Identifier: MIT\npragma solidity ^0.8.10;\n\nimport \"@openzeppelin/contracts/token/ERC721/ERC721.sol\";\nimport \"@openzeppelin/contracts/access/Ownable.sol\";\nimport \"@openzeppelin/contracts/utils/Counters.sol\";\nimport \"@openzeppelin/contracts/token/ERC721/extensions/ERC721URIStorage.sol\";\n\ncontract MyNFT is ERC721, Ownable, ERC721URIStorage {\n    using Counters for Counters.Counter;\n    Counters.Counter private _tokenIds;\n\n    struct Item {\n        uint256 id;\n        address owner;\n        uint256 price;\n    }\n\n    mapping (uint256 => Item) private _items;\n\n    constructor() ERC721(\"MyNFT\", \"MNFT\") {}\n\n    function _burn(uint256 tokenId) internal virtual override(ERC721, ERC721URIStorage) {\n        super._burn(tokenId);\n    }\n\n    function supportsInterface(bytes4 interfaceId) public view virtual override(ERC721, ERC721URIStorage) returns (bool) {\n        return super.supportsInterface(interfaceId);\n    }\n\n    function tokenURI(uint256 tokenId) public view virtual override(ERC721, ERC721URIStorage) returns (string memory) {\n        return super.tokenURI(tokenId);\n    }\n    \n    function mintNFT(address recipient, string memory tokenUriParam, uint256 price) public onlyOwner returns (uint256) {\n        _tokenIds.increment();\n\n        uint256 newItemId = _tokenIds.current();\n        _mint(recipient, newItemId);\n        _setTokenURI(newItemId, tokenUriParam);\n\n        _items[newItemId] = Item(newItemId, recipient, price);\n\n        return newItemId;\n    }\n\n    function buyNFT(uint256 tokenId) public payable {\n        require(_exists(tokenId), \"Error: wrong TokenId\");\n        require(msg.value >= _items[tokenId].price, \"Error: the ETH value sent is not correct\");\n\n        address previousOwner = _items[tokenId].owner;\n\n        _transfer(previousOwner, msg.sender, tokenId);\n        payable(previousOwner).transfer(msg.value); // Transfer the Ether\n\n        _items[tokenId].owner = msg.sender;\n    }\n\n    function getItem(uint256 tokenId) public view returns (uint256 id, address owner, uint256 price) {\n        require(_exists(tokenId), \"Error: wrong TokenId\");\n        Item memory item = _items[tokenId];\n        return (item.id, item.owner, item.price);\n    }\n}\n",
  "sourcePath": "C:\\Users\\cygnu\\Downloads\\\\contracts\\polygon\\MyNFT.sol",
  "compiler": {
    "name": "solc",
    "version": "0.8.10+commit.fc410830.Emscripten.clang"
  },
  "schemaVersion": "3.4.14",
  "updatedAt": "2023-06-13T03:00:48.044Z",
  "networkType": "ethereum",
  "devdoc": {
    "kind": "dev",
    "methods": {
      "approve(address,uint256)": {
        "details": "See {IERC721-approve}."
      },
      "balanceOf(address)": {
        "details": "See {IERC721-balanceOf}."
      },
      "getApproved(uint256)": {
        "details": "See {IERC721-getApproved}."
      },
      "isApprovedForAll(address,address)": {
        "details": "See {IERC721-isApprovedForAll}."
      },
      "name()": {
        "details": "See {IERC721Metadata-name}."
      },
      "owner()": {
        "details": "Returns the address of the current owner."
      },
      "ownerOf(uint256)": {
        "details": "See {IERC721-ownerOf}."
      },
      "renounceOwnership()": {
        "details": "Leaves the contract without owner. It will not be possible to call `onlyOwner` functions. Can only be called by the current owner. NOTE: Renouncing ownership will leave the contract without an owner, thereby disabling any functionality that is only available to the owner."
      },
      "safeTransferFrom(address,address,uint256)": {
        "details": "See {IERC721-safeTransferFrom}."
      },
      "safeTransferFrom(address,address,uint256,bytes)": {
        "details": "See {IERC721-safeTransferFrom}."
      },
      "setApprovalForAll(address,bool)": {
        "details": "See {IERC721-setApprovalForAll}."
      },
      "symbol()": {
        "details": "See {IERC721Metadata-symbol}."
      },
      "transferFrom(address,address,uint256)": {
        "details": "See {IERC721-transferFrom}."
      },
      "transferOwnership(address)": {
        "details": "Transfers ownership of the contract to a new account (`newOwner`). Can only be called by the current owner."
      }
    },
    "version": 1
  },
  "userdoc": {
    "kind": "user",
    "methods": {},
    "version": 1
  },
  "db": {
    "callBytecode": {
      "id": "0x607e006d0ab9522395247a9f9c1c86a9e067cbfcba1c871f0a7bd940b64eff25"
    },
    "createBytecode": {
      "id": "0x51f1b6e9a324ed7b575f98aace941d2c17d2e7004d7a08ce6a55f6c6e05d850a"
    },
    "contract": {
      "id": "0xb65879466787d765aa0cdd1c8bcc94034557b405df18a8d94cf41b965c95cabf"
    }
  }
}